:020000040800F2
:10000000E8CB0120E50300081F450008513D00082A
:100010001D450008C1200008414A000800000000FA
:1000200000000000000000000000000025030008A0
:10003000812100080000000081030008C947000872
:10004000FF030008FF030008FF030008FF03000888
:10005000FF030008FF030008FF030008FF03000878
:1000600083210008FF030008FF030008FF030008C6
:10007000C5200008FF030008FF030008D120000886
:10008000FF030008FF030008FF0300080000000052
:10009000000000000000000000000000FF03000856
:1000A00085480008FF030008FF030008FF0300085D
:1000B000FF030008FF030008FF030008FF03000818
:1000C000FF030008FF030008FF030008FF03000808
:1000D000FF030008FF030008FF0300080000000002
:1000E000FF030008FF030008FF03000800000000F2
:1000F000000000000000000000000000FF030008F6
:1001000000000000FF030008FF030008FF030008D1
:1001100000000000000000000000000000000000DF
:10012000FF030008FF030008FF030008FF030008A7
:10013000FF030008000000000000000000000000B5
:10014000000000000000000000000000FF030008A5
:10015000FF030008FF030008FF030008FF03000877
:10016000FF030008FF03000800000000000000007B
:10017000000000000000000000000000000000007F
:1001800000000000FF030008000000000000000065
:10019000FF030008FF03000800F002F800F0B2F8C7
:1001A0000AA090E8000C82448344AAF10107DA45D2
:1001B00001D100F0A7F8AFF2090EBAE80F0013F072
:1001C000010F18BFFB1A43F0010318476CD5060056
:1001D0008CD506000A444FF0000C10F8013B13F0D8
:1001E000070408BF10F8014B1D1108BF10F8015B90
:1001F000641E05D010F8016B641E01F8016BF9D183
:1002000013F0080F1EBF10F8014BAD1C0C1B09D1D9
:100210006D1E58BF01F801CBFAD505E014F8016B4B
:1002200001F8016B6D1EF9D59142D6D370470000DD
:100230000023002400250026103A28BF78C1FBD8EF
:10024000520728BF30C148BF0B6070476E2900F0CD
:100250004E85702900F05F8266292EF09C87652903
:100260002EF0998767292EF0968761292EF09587C1
:1002700003681B0A28BF41F08001692900F0D08182
:10028000642900F0CD81752900F0CA816F2900F042
:100290003C86782900F02B82E92900F0D785E429F3
:1002A00000F0D485F52900F0D185EF2900F03986DA
:1002B000F82900F02A820368DB0928BF41F0800199
:1002C000632900F05885732900F05D85E32901F06A
:1002D0001182F32901F01682002070471FB52EF01D
:1002E00055FF01F061FA0400002000212EF038FFD4
:1002F000401C6060002000212EF01CFFE0601FBD4C
:1003000010B510BD01F022FA1146FFF7E7FF27F004
:10031000A5F801F0FFFA03B4FFF7F2FF03BC00F009
:1003200075FC00002C4B19680868B0E8F04F80F3AA
:100330000988BFF36F8F4FF0000080F3118870477A
:100340000000000008480068006880F308884FF04B
:10035000000080F3148862B661B6BFF34F8FBFF31D
:100360006F8F00DF00BF00BF08ED00E0DFF80C007A
:10037000016841F470010160704700BF88ED00E042
:10038000EFF30980BFF36F8F134B1A681EF0100F45
:1003900008BF20ED108A20E9F04F106009B44FF03B
:1003A000500080F31188BFF34F8FBFF36F8F2EF093
:1003B000CFF84FF0000080F3118809BC1968086875
:1003C000B0E8F04F1EF0100F08BFB0EC108A80F3B9
:1003D0000988BFF36F8F7047A0000020EFF30580FE
:1003E000704700000948804709480047FEE7FEE7DC
:1003F000FEE7FEE7FEE7FEE7FEE7FEE7FEE7FEE7D5
:1004000004480549054A064B704700007548000836
:1004100099010008E8C50120E8CB0120E8C70120C8
:10042000E8C7012053EA020C00F069802DE9F04B87
:100430004FF00006002B1FBFB3FA83F503FA05F453
:1004400024FA05F65E4012BF1643B2FA82F502FAAC
:1004500005F4C5F120051EBF22FA05FC44EA0C0490
:10046000203556EA044C4FEA144418BF641C4FF080
:1004700000084FF00009904271EB030C39D30029BA
:1004800019BFB1FA81F701FA07F6B0FA80F700FA5E
:1004900007F6C7F120071EBF20FA07FC46EA0C0644
:1004A0002037B6FBF4FCA7EB0507103F07F01F0B46
:1004B000CBF120060CFA0BFB2CFA06F644BFB34630
:1004C0000026202FA4BF5E464FF0000B5BEA060C0F
:1004D00008BF4FF0010B19EB0B09ABFB027C48EB9B
:1004E0000608C01B06FB02CC0BFB03CC71EB0C0116
:1004F000C1E70B46024641464846BDE8F08B13B5BE
:100500004FF000004FF00001AFF30080BDE81C4049
:10051000704700007CB51D4616460C00009001D0C7
:100520002044401E074B7B442A46694601903046D2
:1005300000F0F7FB05461CB10020694600F004FC02
:1005400028467CBD290800000FB47CB50C0009AA20
:10055000009001D02044401E084B7B446946019026
:10056000089800F0DEFB05461CB10020694600F04B
:10057000EBFB28467CBC5DF814FB0000F50700008F
:1005800070B5044685690068C10601D5302600E0D3
:100590002026C00707D070BDD4E90121304690471E
:1005A000206A401C20626D1EF6D570BD70B50446F1
:1005B00085690078C00707D170BDD4E901212020EA
:1005C0009047206A401C20626D1EF6D570BD70B544
:1005D0000C460546012A05D02878800600D5EA6930
:1005E000002302E0012305E05B1C934202D2E05CA1
:1005F0000028F9D1A869E618C01AA861286A184429
:1006000028622846FFF7BCFF04E0D5E9012114F871
:10061000010B9047B442F8D32846FFF7C7FF70BDDF
:100620002DE9F0410646002410687529314616A5CB
:1006300010D000F0F1FA002802DA404213A507E0DA
:1006400031688A0701D512A502E0490704D511A532
:10065000012401E000F0E9FA00210A2206F1240752
:1006600009E0B0FBF2FCB0FBF2F302FB1C003030FF
:1006700078541846491C0028F3D123462A463046B0
:10068000BDE8F04100F0DABA000000002D000000E3
:100690002B00000020000000F0B40D460188090581
:1006A00002D5214C7C4402E01F4C7C440E340021D6
:1006B00000F1240608E002F00F071209E75D42EAA4
:1006C00003721B097754491C52EA0307F3D10278DD
:1006D0000023120704D5702D06D009B1022311346E
:1006E0002246F0BC00F0AABA01231034F8E770B536
:1006F00004460D462146106800F097FA0246294646
:100700002046BDE870400023C6E7D21D22F0070353
:10071000D3E90023C0E70368126843F020030360B5
:100720000823C3610023B7E798C906002DE9F05FED
:10073000894604464FF0000ADFF874B1FB44C0F864
:1007400020A02046E1688847002874D0252806D0DC
:10075000D4E901219047206A401C2062F1E700267D
:100760005F462046E16888472028054607DB312D93
:1007700005D2781910F8200C08B10643F1E7B0074C
:1007800001D526F00406C4F81CA00027C4F818A060
:100790002A2D09D0284604F028FA38B304EB87083C
:1007A000303DC8F8185019E059F8041B204604EBF6
:1007B00087029161E1688847012F054618D1E069F9
:1007C000002820DA26F020061DE0D8F8180000EBFB
:1007D000800005EB40003038C8F818002046E1687A
:1007E0008847054604F001FA0028EED1012F0AD00F
:1007F0002E2D08D12046E16888477F1C0546022F30
:1008000046F02006C4DBA069002803DA404246F027
:100810000106A061F00701D026F010066C2D0BD068
:10082000682D09D04C2D39D06A2D35D0742D35D096
:100830007A2D33D016E038E0E1682F46204688470D
:10084000B842054609D16C2F26D04FF48060E1688C
:10085000064320468847054604E06C2F1AD04FF423
:10086000807006430DB3A5F14100192802D8203548
:1008700046F400664A462946204626604E46FFF763
:10088000E5FC80B101280BD0F61D26F0070000F131
:10089000080956E74020E4E78020D8E70020D6E7A3
:1008A00006F104094DE7284652E7206ABDE8F09FAB
:1008B00028C9060030B505460B462A4613F8014BF9
:1008C00012F8010B08B1A042F8D01CB1002802D0E8
:1008D0006D1CF1E7284630BD40EA0103024630B501
:1008E0009B0710D14FF0013400E008C208C91D1B5E
:1008F0009D4315EAC41FF8D013F0FF0102F8011B55
:100900000DD01B0AF8E711F8013B002B02F8013B60
:1009100005D011F8013B002B02F8013BF3D130BDAB
:1009200010B5431C02E010F8011B71B18107FAD128
:100930004FF0013202C88C1A8C4314EAC211F9D06C
:10094000C01A0A0603D0C01E10BDC01A10BD0A048A
:1009500001D0801E10BD0902FCD0401E10BD40EA2F
:10096000010370B59B072ED14FF00136042A2AD31C
:1009700008C810C99D1B9D43121F15EAC61517D044
:10098000D8B2E1B2401A50EA056110D198B2A1B2D2
:10099000401A50EA05410AD123F07F4024F07F41FC
:1009A000401A50EA052102D1180EA0EB146070BD68
:1009B000A342DBD018BA21BA884201D9012070BD08
:1009C0004FF0FF3070BD0AB9002070BD10F8013B38
:1009D00011F8014B63B1A3420AD1521E08D010F89E
:1009E000013B11F8014B1BB1A34201D1521EEDD1C5
:1009F000181B70BD032A40F2308010F0030C00F089
:100A0000158011F8013BBCF1020F624498BF11F848
:100A100001CB00F8013B38BF11F8013BA2F1040201
:100A200098BF00F801CB38BF00F8013B11F0030379
:100A300000F02580083AC0F0088051F8043B083ADD
:100A400051F804CBA0E80810F5E7121D5CBF51F87F
:100A5000043B40F8043BAFF30080D20724BF11F8F9
:100A6000013B11F801CB48BF11F8012B24BF00F85E
:100A7000013B00F801CB48BF00F8012B704710B5CF
:100A8000203AC0F00B80B1E81850203AA0E8185086
:100A9000B1E81850A0E81850BFF4F5AF5FEA027C47
:100AA00024BFB1E81850A0E8185044BF18C918C0B6
:100AB000BDE810405FEA827C24BF51F8043B40F857
:100AC000043B08BF7047D20728BF31F8023B48BF3C
:100AD00011F8012B28BF20F8023B48BF00F8012B7A
:100AE000704702F0FF0343EA032242EA024200F0A9
:100AF00002B84FF000020429C0F0128010F0030C7D
:100B000000F01B80CCF1040CBCF1020F18BF00F800
:100B1000012BA8BF20F8022BA1EB0C0100F00DB8AF
:100B20005FEAC17C24BF00F8012B00F8012B48BF0D
:100B300000F8012B70474FF0000200B513469446B1
:100B40009646203922BFA0E80C50A0E80C50B1F125
:100B50002001BFF4F7AF090728BFA0E80C5048BF39
:100B60000CC05DF804EB890028BF40F8042B08BFD7
:100B7000704748BF20F8022B11F0804F18BF00F8D3
:100B8000012B70474FF0013C50F8042B51F8043B07
:100B90009A4221D1A2EB0C03934313EACC1317D151
:100BA00050F8042B51F8043B9A4215D1A2EB0C03E8
:100BB000934313EACC130BD150F8042B51F8043BA8
:100BC0009A4209D1A2EB0C03934313EACC13DBD076
:100BD0004FF00000704700BFD01A01BAB1FA81F19E
:100BE00001F0180122FA01F0CB40C1F12001DBB283
:100BF000C0B2C01A2CFA01F3D11A914311EAC31101
:100C0000E6D17047704770477047000001491820CF
:100C1000ABBEFEE72600020009684A0501D540B2D6
:100C20007047C905FCD500B2704709684A0501D56F
:100C3000C0B27047C905FCD580B270472DE9F047B6
:100C40000D4699469246044600F12408016888063C
:100C500004D5E06921F01001216000E00120A842E4
:100C600001DD471B00E00027A1697A1902EB0900AA
:100C7000081AA0612078C00602D42046FFF780FC45
:100C8000002608E0D4E901211AF806009047206AFE
:100C9000401C761C20624E45F4DB2078C0060AD545
:100CA0002046FFF76DFC06E0D4E901213020904793
:100CB000206A401C2062381EA7F10107F4DC07E01F
:100CC000D4E9012118F805009047206A401C2062F1
:100CD000281EA5F10105F3DC2046FFF767FC20780C
:100CE000000602D50220BDE8F0870120FBE711686D
:100CF0000268006A530501D508700AE0D30501D5E2
:100D0000088006E0130603D5C217C1E9000200E01F
:100D1000086001207047000001694A1C02610878E0
:100D2000704700B58FB0CDE901310021059105492B
:100D30007944CDE9031011466846FFF7F7FC0FB080
:100D400000BD0000E5FFFFFF0A6802F8010B0A6022
:100D50007047D1E900239A4202D2531C0B601070F5
:100D6000704710B5436913B1AFF3008001E0FFF79E
:100D70002EFC012010BD127800F124010A7000221F
:100D80004A700122EDE711684FF0FF32E9E70000F9
:100D90002DE9FF5F15468A460446DFF8AC80F8442B
:100DA0000027D8E900103E46CDE9001010E03AF8DF
:100DB00016106A4602A800F0A9FC411C07D0217851
:100DC000890603D5E269391891420DD80744761C8B
:100DD0002078800602D5E069B84205DDAE42E6DB48
:100DE0003AF816000028E2D1A069C01BA061204695
:100DF000FFF7C6FBD8E90010CDE90010002017E08E
:100E00003AF818106A4602A800F080FCB0F1FF3FE3
:100E100081460BD000250DF1080B05E0D4E9012136
:100E20001BF8050090476D1C4D45F7D308F10100F4
:100E3000B0428046E4DB206A384420622046FFF757
:100E4000B5FBBDE8FF9F0000DAC206002DE9F041C6
:100E50008046D21D22F007020025D2E90002F529C2
:100E600015A614D0011E72F1000106DA0023D0EBA2
:100E7000030063EB020211A608E0D8F800108B070C
:100E800001D50FA602E0490701D50EA6012511469E
:100E9000002408F1240704E000F04FF830323A55FE
:100EA000641C50EA0102F7D12B46324621464046E7
:100EB000BDE8F041FFF7C2BE000000002D000000B9
:100EC0002B0000002000000030B4002100F12404B9
:100ED00008E002F00705D208303542EA4372DB0829
:100EE0006554491C52EA0305F3D10468002310A29B
:100EF000250707D5A40600D421B1C46901230DA29A
:100F0000641EC46130BCFFF799BE10B5044621468B
:100F10001068FFF78AFE02462046BDE81040002315
:100F2000D2E7D21D22F00701D1E90023CCE700006F
:100F30000000000030000000704730B5B0F10A0238
:100F40004FEA900E71F100034EEA817EB0EB0E0085
:100F500061EB91014FEA101E4EEA017E10EB0E008C
:100F600041EB11114FEA102E4EEA016E10EB0E000C
:100F700041EB11214FEA104E4EEA014E10EB0E00EC
:100F800041EB1141401841F100014FEAD00040EA25
:100F900041704FEAD10110EB80054FEA810444EA29
:100FA000907444EB01046D1944EB0404521BA341FB
:100FB0004FF0000348BF0A3200D530BD401C41F15C
:100FC000000130BD70472DE9FF4F0C461E464FF023
:100FD000FF378BB0D2E90001DDF860800A908A46C5
:100FE000C1F30A5505B93D46002108464FF00000FF
:100FF000BAF1000F00F4400005DA00EB80004FF476
:10100000400101EA50004FEA9059B9F1010F00DDAB
:10101000B9460A9850EA4A000ED044F61050A5F29C
:10102000FF3545432F14B8F1000F1ED07542291E1D
:101030001EDDC9F100021CE0B8F1010F4FF0000005
:1010400001D0302103E0F24305E02154401CB042BE
:10105000FBDB30460022002121540B99C1F80880A7
:10106000C1E900200FB0BDE8F08FBD1B6D1CDEE7AD
:101070004A4600DA694206A800F0DAFB06AB93E8BC
:10108000070003AB83E8070050460A9900F050FCC4
:101090008DE80700A0F500501F3800900398002D40
:1010A0000ADD42F21F014A460844002303A90390C7
:1010B000684600F0B9FE09E0A0F500504A461F3826
:1010C000002303A90390684600F0C3FE8DE80700E3
:1010D0000004000C03D04FF0FF30410800E0104640
:1010E000B8F1000F03D00022009215461EE0751ED5
:1010F00005D4FFF722FF303262556D1EF9D5B34695
:101100000122084302D000227F1C04E0207830280E
:1011100001D100227F1E002A099784D01DE0112DE5
:1011200007DAFFF70AFF303262556D1C50EA010200
:10113000F5D1084302D00098C8B10EE00021681E26
:1011400005E0235C625C63542254401E491C8142CA
:10115000F7DBAB46A81B401E0990002004F80B00EB
:101160000B98099AC0F80880C0E9002B7AE711268D
:101170004FF0000857E72DE9F04F88460446D21D8E
:1011800022F0070191B0D1E90001CDE90A0103F095
:10119000E6FC02460B98C00F01D02D2007E0206826
:1011A000810701D52B2002E0202101EAC000032A9B
:1011B000099001D0072A05DB03464146204600F08E
:1011C000F7FA0BE12078800601D5E06900E00620FF
:1011D000B8F1650F814606D0B8F1660F18D0B8F1A6
:1011E000670F70D131E00020B9F1110F009001DBE1
:1011F000112301E009F101030AAA01A90CA8FFF7D4
:10120000E2FEDDE90C70002609F10105834647E0A6
:1012100001204B4600904FF000470AAA01A90CA8F4
:10122000FFF7D1FEDDE90DB00C995D46002610B93F
:1012300009F101000D18B9EB050003D4C0F1FF3628
:1012400009F10105A5EB09002BE0B9F1010F01DA65
:101250004FF001090020B9F1110F0090484601DD5F
:10126000112300E003460AAA01A90CA8FFF7ABFE70
:10127000DDE90C704D4600268346207800070AD42D
:10128000AB4500DA5D4601A8012D04DD411911F8D6
:10129000011C302907D04F4502DA17F1040F04DA98
:1012A000012082460FE06D1EEEE7002F02DCED1BF1
:1012B0003E4403E0781CA84200DD7D1CB81B00F111
:1012C000010A4FF000472078000703D4AA4501DB4C
:1012D0004FF0FF3A0021B7F1004F0DF143088DF8B0
:1012E000431024D002202B23002F01DA7F422D232C
:1012F0000A21021EA0F1010000DC5FB197FBF1FCA6
:1013000097FBF1F201FB1C7C17460CF1300C08F83E
:1013100001CDEEE7A8F1010003702188090501D590
:10132000452100E06521A0F1010800F8011C0998A1
:101330000FA9A1EB0807FF1D00B10120411901EB26
:10134000EA70A1693844081A401EA0612078C006DE
:1013500002D42046FFF714F9099828B1D4E90121F5
:101360009047206A401C20622078C00622D5204683
:10137000FFF706F91EE0002E04DBB34502DD01A8ED
:10138000805D00E03020D4E901219047206A401CB4
:101390002062761CAAF101005FEA000A0AD100F07F
:1013A00003FAC0680168405CD4E901219047206AD3
:1013B000401C2062281EA5F10105DCDC07E0D4E911
:1013C000012118F8010B9047206A401C2062381E4A
:1013D000A7F10107F3DC2046FFF7E8F8032011B07E
:1013E00041E600002DE9F04F04460D46D21D22F0E3
:1013F000070089B0D0E900974846394603F0AFFBB3
:101400000246F80F01D02D2307E02068810701D59F
:101410002B2302E0202101EAC0038DF820300BB11C
:10142000012000E00020032A824601D0072A04DBC5
:101430002946204600F0BCF93FE12078800601D41F
:101440000D2500E0E569C7F30A560D2D49DA0021A4
:101450004FEA175B08464FF00000002F00F44000F1
:1014600007DA00EB80004FF4400100EBD07001EA96
:1014700060008115012901DD4FF0FF3100224FEAA4
:10148000850CBCF1180F06D31346ACF118004FF0D1
:101490008052C24003E04FF4801323FA0CF30CF1A6
:1014A0000C0CBCF1200F04D3ACF1200C09FA0CF0A9
:1014B00001E007FA0CF000294FF0004801DD18B9EF
:1014C0000FE00ED140450CD319EB02095F4121B961
:1014D000404502D19F4329EA0209BBEB175F00D0C8
:1014E000761C2088000502D57B48784402E07A48C3
:1014F0007844193808AA302302F80A30037C0AF12C
:101500000101002E0AF1020A53546A4602DC4FF030
:10151000300101E04FF031014FF001088DF800106B
:1015200002D0A6F2FF3603E059EA470100D06B4E25
:10153000002D02DC2178090704D54FF002082E2186
:101540008DF80110C44600210BE0C7F303433F01AF
:10155000C35C491C6D1E02F80830052908F101081A
:1015600001DA002DF1DC00210CE000EB1973491CBD
:101570001B786D1E082902F808304FEA091908F196
:10158000010801DA002DF0DC21688B0602D516E097
:10159000A8F10108E04505DD02EB080313F8013C62
:1015A000302BF5D0B8F1000F09DD02EB080313F87A
:1015B000013C2E2B03D1090701D4A8F10108002D0D
:1015C00005DD3E2102F808106D1E08F10108407C7F
:1015D000002E02F8080008F1010804DA2D207642F6
:1015E00002F8080002E02B2002F808000A214FF45C
:1015F0007A70864208F101080BDB96FBF0F330337A
:1016000002F8083096FBF0F308F1010800FB1366BE
:1016100001E0642E0CDB642096FBF0F3303302F81B
:10162000083096FBF0F308F1010800FB136601E0B7
:101630000A2E06DB96FBF1F0303002F8080008F1C4
:10164000010896FBF1F001FB1060303002F8080051
:10165000A16908F1010808EB050202EB0A00081A6B
:10166000A0612078C00602D42046FEF789FF216AD7
:1016700008AE01EB0A00206204E0D4E9012116F86B
:10168000010B9047BAF1010AF7D22078C00602D5C3
:101690002046FEF775FF6E4609E016F8010B3E285E
:1016A0000FD0D4E901219047206A401C2062B8F194
:1016B0000108F2D22046FEF779FF09B00320BDE809
:1016C000F08F206A2844206203E0D4E90121302011
:1016D00090476D1EEBD3F8E7A9BB060002FCFFFFA5
:1016E00010B5436913B1AFF3008001E0FFF750FB81
:1016F000012010BD128800F1240182840022C284DE
:101700000122EDE711684FF0FF32E9E770B51646A8
:101710000C46054600F040F8036893F801010128E3
:1017200006D0FF2C0FD8185D68B101202C7070BD59
:10173000D3F807013246214603F207130344284633
:10174000BDE8704018474FF0FF3070BD754600F09F
:10175000EBF8AE4605006946534620F00700854683
:1017600018B020B5FEF74CFEBDE820404FF0000653
:101770004FF000074FF000084FF0000B21F0070179
:10178000AC46ACE8C009ACE8C009ACE8C009ACE8BC
:10179000C0098D467047000010B500F005F8001D27
:1017A00010BD00BFBDD9020000487047A4C501208C
:1017B0002DE9F0411F46044603260168072A01F47B
:1017C000006004DB08B116A505E016A503E008B12A
:1017D00015A500E015A521F010002060A069C01E2D
:1017E000A0610FB1401EA0612046FEF7C9FE4FB1B7
:1017F000D4E9012138469047206A401C2062C01C71
:10180000206206E0206AFAE7D4E9012115F8010B0D
:101810009047761EF8D22046FEF7C8FEBDE8F0815C
:101820004E414E006E616E00494E4600696E660084
:101830002DE9F047814616468AB0354878440DC8F0
:101840008DE80D0032487844801C03AC0DC884E854
:101850000D0041F69B300844372190FBF1F290FBDC
:10186000F1F5A5F1800501FB12041B3C02D5644291
:10187000012000E00020DFF898A080460027FA440D
:10188000AAF1BE0A0EE0E0070AD03246684607EB2E
:10189000470101230AEB810100F0DBFA8DE8070024
:1018A00064107F1C002CEED1194F7F44AE3F19E02D
:1018B000E80715D007EB04100DF1180A90E80E00A8
:1018C0008AE80E00C068F04201D1981908903246AB
:1018D000012306A903A800F0BCFA03AB83E80700C4
:1018E0006D10641C002DE3D14FF0010332466946B0
:1018F000B8F1000F03A802D000F096FA01E000F062
:10190000A8FAC9E90001C9F808200AB0BDE8F087C3
:10191000E8B8060010B50446AFF300802046BDE8E5
:101920001040FEF7F8BC00000048704784C5012055
:101930005FEA400C08BF91F0000F4FEA8C234FEA9A
:10194000C12243EA51514FEA1C5018BF00F5F04044
:101950004FEA300018BF41F000415FEA6C5C00F0D4
:101960002980BCF1FF3F08BF40F080407047130C56
:1019700006BF12044FF0100C4FF0000C130E04BF02
:1019800012020CF1080C130F04BF12010CF1040C2D
:10199000930F04BF92000CF1020CD30F04BF52004E
:1019A0000CF1010C11464FF00002A0F11F00A0EB5A
:1019B0000C00704711F0004F08BF704731F0004134
:1019C0003FF4D5AF0B0C06BF09044FF0100C4FF0DD
:1019D000000C0B0E04BF09020CF1080C0B0F04BF26
:1019E00009010CF1040C8B0F04BF89000CF1020CEF
:1019F000CB0F04BF49000CF1010CCCF12003A0EB8C
:101A00000C0022FA03F302FA0CF241EA030100F19E
:101A10000100704720F07F4C80EA030023F07F47ED
:101A2000ACEB070303F57C5300F0004003F1FF0328
:101A30002DE980494FEA154B09B44FEA144325EAD2
:101A40000B4E24EA03480FF2042606EB132749083D
:101A50003E785FEA320203FB0667C7F5000707FB23
:101A600006F64FEA54374FEAD64606F1020607FB60
:101A7000066CCCF1005C4FEA1C472CEA074C07FBD4
:101A800006F40CFB06F504EB15464FEA961634BF38
:101A900000204FF000404FEAD13706FB07FC4FEA29
:101AA0001C4C0CFB0BF7D21B03FB0CF761EB070183
:101AB0000CFB0EF7B0EB074072EB17420CFB08F77C
:101AC00034BFA2EB0742B2EB074261EB17414FEA8A
:101AD0000C444FEA910706FB07FC4FEA1C4C0CFB39
:101AE0000BF7B0EBC74072EB573203FB0CF734BF78
:101AF000A2EBC742B2EBC74261EB57310CFB0EF7CA
:101B0000B0EBC70072EB57720CFB08F734BFA2EBC7
:101B1000C702B2EBC70261EB5771039F4FEA8161C5
:101B200041EA921104EBCC044FEAD1374FEA8262CA
:101B300006FB07FC42EA90124FEA80604FEA1C4C19
:101B40000CFB0BF7D21B03FB0CF761EB07010CFB43
:101B50000EF7B0EB074072EB17420CFB08F734BFEF
:101B6000A2EB0742B2EB074261EB17414FEA8C55FB
:101B70004FEA910704EB9C2406FB07FC4FEA1C4C40
:101B80000CFB0BF7B0EBC74072EB573203FB0CF7C3
:101B900034BFA2EBC742B2EBC74261EB57310CFB3B
:101BA0000EF7B0EBC70072EB57720CFB08F734BFAF
:101BB000A2EBC702B2EBC70261EB577115EB4C25E4
:101BC0004FEA816141EA92114FEA82624FEAD137CE
:101BD00042EA901206FB07FC44F100044FEA8060E1
:101BE0004FEA1C4C0CFB0BF7D21B03FB0CF761EB11
:101BF00007010CFB0EF7B0EB074072EB17420CFB32
:101C000008F734BFA2EB0742B2EB074261EB174182
:101C100015EB1C154FEA813141EA92414FEA8232BD
:101C200042EA90424FEA80304FEA0C7644F10004D9
:101C300048EA03434EEA0B484FF0000EB2EB080CA3
:101C400071EB030724BF624639464EEB0E0E4FF090
:101C5000000B0018524149414BEB0B0BB2EB080C47
:101C600071EB03077BF1000B24BF624639464EEB54
:101C70000E0E4FF0000B0018524149414BEB0B0B7D
:101C8000B2EB080C71EB03077BF1000B24BF62463B
:101C900039464EEB0E0E51EA020718BF46F0010618
:101CA00016EB0E7655F1000254F1000103D5BDE8A4
:101CB0008901BDE80088BDE88901BDE80048B61982
:101CC000524141EB0101A3F10103704780807F7E07
:101CD0007D7C7B7A797877767675747372717170A2
:101CE0006F6E6E6D6C6C6B6A6A6968686766666554
:101CF0006464636362616160605F5F5E5E5D5D5CE2
:101D00005C5B5B5A5A595958585757565655555552
:101D10005454535352525251515050504F4F4F4EB2
:101D20004E4D4D4D4C4C4C4B4B4B4A4A4A49494900
:101D30004848484747474746464645454544444442
:101D4000444343434342424242414141002B9C466B
:101D500030D477002BD01CB54FEA370703B44FF0CF
:101D600010004FF01001BAF1000F06D0BCF1000FC7
:101D7000DCBF40F0080040F008014FF000000FBC4D
:101D8000BDE810400BF1010BBBF1010F08BF5FEA8A
:101D9000170722BF12F1010211F101014FF00041BA
:101DA00043F1000300F0004043EA00007047F9D31C
:101DB0005708D0E746EA064613F1400F4FEA1646A9
:101DC0001FDD13F1200FDFBF16430A460021203329
:101DD0005B42BED0C3F1200746EA064602FA07F787
:101DE0004FEA164646EA0706C3F1200722FA03F235
:101DF00001FA07F721FA03F14FF0000342EA070264
:101E0000A7E746EA020646EA06464FEA164646EACB
:101E10000106BCBF46EA0646360C4FF000034FF001
:101E200000024FF0000194E72DE9804C9A4693465A
:101E300070B491E8380007C831EA400C48BF34EA72
:101E4000430C03D5FFF7E6FDFFF780FFF0BCBDE8CC
:101E5000008C2DE9804C9A46934670B491E8380086
:101E600007C810F0804F08BF13F0804F03D100F077
:101E700005F8FFF76BFFF0BCBDE8008C20F07F4752
:101E800080EA030023F07F4C07EB0C03A3F57C539F
:101E900000F00040A3F1FE0392F0000F00F0B380C9
:101EA00095F0000F00F077802DE901494FEA1140CD
:101EB0004FEA144621EA004800FB06FC24EA0647E4
:101EC00008FB06F607FB08F800FB07F718EB0648C7
:101ED0004CEB164C4FEA124B18EB07484FEA1546ED
:101EE0004CEB174022EA0B4E0BFB06FC25EA06479B
:101EF0000EFB06F607FB0EFE0BFB07F71EEB064E6E
:101F00004CEB164C4FF000061EEB074E4CEB174BFC
:101F100018EB0B0840F1000018EB0E0B58EB000813
:101F200040F100008F1A4FF000013CBFC943661B0F
:101F300014BFB5EB040C00213CBFC943F61B4FEAAC
:101F400017444EEA8E0E27EA04454FEA1C4704FB6D
:101F500007622CEA074C05FB07F70CFB05F604FBB0
:101F60000CFC16EB074642EB174216EB0C4642EB15
:101F70001C421BEB060658EB0202414146EA9E0654
:101F800001D5BDE80189B619524141EB0101A3F128
:101F90000103BDE801894FEA14454FEA114724EADD
:101FA000054621EA074C05FB07F406FB07F70CFB87
:101FB00006F105FB0CFC11EB074144EB17444FEA1B
:101FC000124711EB0C4144EB1C4422EA074C05FB81
:101FD00007F206FB07F70CFB06F605FB0CFC16EBFD
:101FE000074642EB174216EB0C4642EB1C456A18BB
:101FF00054F1000148BF7047B619524141EB01014D
:10200000A3F10103704795F0000F37D04FEA11425A
:102010004FEA144721EA024624EA074C02FB07F183
:1020200006FB07F70CFB06F402FB0CFC14EB074461
:1020300041EB17414FEA154714EB0C4441EB1C41AF
:1020400025EA074C02FB07F506FB07F70CFB06F633
:1020500002FB0CFC16EB074645EB174516EB0C464E
:1020600045EB1C42121951F1000148BF7047B619E7
:10207000524141EB0101A3F1010370474FEA1445BE
:102080004FEA114724EA054621EA074C05FB07F110
:1020900006FB07F70CFB06F24FF0000605FB0CFCF5
:1020A00012EB074241EB174112EB0C4251EB1C4182
:1020B00048BF7047921841EB0101A3F1010370473B
:1020C000FEE70000014800F075B80000AC040020F5
:1020D000014800F06FB80000640500200168182373
:1020E000CAB2103AB2FBF3F2054B6FF30901032AAF
:1020F0009B5CC36500D9091D8165084670470000D7
:102100000D89030810B5014600208B698A6A4FF0DB
:10211000C07453B1B3F5005F15D072B1012A0CD071
:10212000022A0AD0032A09D104E01AB1012A06D0F2
:10213000022A03D1C96AC90100D5012010BDC96AAC
:10214000A142FAD010BD002AF7D0012AF2D0022A0B
:10215000F3D0032AF3D010BD30B50468256825F408
:1021600080252560046863608368402B036803D082
:1021700099600068C26030BD9A600068C16030BD7F
:102180007047042000F068BA72B6FEE790F8351088
:10219000022903D08021416501207047052180F884
:1021A00035100068016821F00101016000207047CE
:1021B000406D70472DE9F84304464FF00009CDF813
:1021C000009063484FF41651A56D0068B0FBF1F71D
:1021D0002E6894F85C10082000FA01F131420FD00B
:1021E00021680A6852070BD50A6822F004020A60C7
:1021F00094F85C108840A860606D40F00100606554
:1022000094F85C104FF0010808FA01F0304208D051
:1022100021684969090604D5A860606D40F0020094
:10222000606594F85C1004208840304208D0216832
:102230000968890704D5A860606D40F004006065F6
:1022400094F85C1010208840304218D0216809684A
:10225000090714D5A86020680168490304D50068FF
:10226000000308D5A16C07E00168C90503D4016823
:1022700021F008010160216C09B12046884794F8DB
:102280005C1020208840304231D021680968C9069E
:102290002DD5A86094F8350005282068016806D07F
:1022A000490347D5006800031DD4616C1CE021F090
:1022B000160101602068416921F080014161206CB4
:1022C00008B9A06C20B12068016821F00801016004
:1022D00094F85C103F208840A86084F8358084F82A
:1022E0003490216D1FE0E16B09B120468847606D95
:1022F00000282BD0606DC00714D0052084F835006D
:102300002068016821F0010101600098401C0090E4
:10231000B84203D820680068C007F6D184F8358039
:1023200084F83490E16C002910D001B02046BDE85B
:10233000F04308470168C905D5D4016821F01001B0
:10234000016084F8358084F83490CCE7BDE8F883E8
:102350009C0000202DE9F041044600F07FFA06467B
:102360005CB1022084F83500002584F834502068E0
:10237000016821F0010101600DE00120BDE8F0815C
:1023800000F06CFA801B052805D920206065032029
:1023900084F83500F2E720680068C007F0D12268B1
:1023A000116820480140D4E901031843D4E90336F9
:1023B0003343184363691843A3691843E369184317
:1023C000236A18430843616A042903D1D4E90B1333
:1023D00019430843106020684069666A20F00701CD
:1023E00030460E43012704280CD1A06A0643E06A58
:1023F00040B12046FFF786FE20B14020606584F89A
:102400003570BAE7206846612046FFF767FE94F80A
:102410005C203F2191408160656584F83570002023
:10242000ACE700003F8010F02DE9F0410446866DD6
:1024300090F83400002501280DD0012084F83400E4
:1024400094F835700020012F07D084F8340002255D
:102450002846BDE8F0810220FBE7022784F83570AA
:1024600060652046FFF778FE94F85C103F208840B6
:10247000B0602068016841F016010160206C20B155
:102480002068016841F0080101602068016841F09E
:1024900001010160DCE7000070B5044600F0DEF9E0
:1024A0000546601C02D004480078044400F0D6F9C8
:1024B000401BA042FAD370BD900000202DE9F04FE0
:1024C0000022DFF808B101264FF00F0906FA02F4E6
:1024D00001EA0403A34274D122F003075F44D7F852
:1024E000088895074FEA157C09FA0CFA0AEA0805EC
:1024F000DFF8DC80404502D14FF000081DE0DFF836
:10250000D480404502D14FF0010816E0DFF8C880C2
:10251000404502D14FF002080FE0DFF8C08040458F
:1025200002D14FF0030808E0DFF8B480404502D143
:102530004FF0040801E04FF0070808FA0CF8A8452E
:1025400022D1284DD5F800C02CEA030CC5F800C0F4
:102550002D1DD5F800C02CEA030CC5F800C0214D94
:102560000C35D5F800C02CEA030CC5F800C02D1FAF
:10257000D5F800C02CEA030CC5F800C0D7F80858FD
:1025800025EA0A05C7F80858056857000323BB4029
:102590009D430560D50800EB8505D5F820C0570799
:1025A0004FEAD76809FA08F72CEA070CC5F820C0EB
:1025B000C5689D43C5604568A543456084689C43E4
:1025C0008460521C102A81D3BDE8F08F0030014096
:1025D000000002400004024000080240000C0240DB
:1025E00000100240003C01401CB5044609A16920CE
:1025F000CDE900010D4B0EA213A103200EF0F6FE53
:10260000042C06D112480269002A02D069461148FA
:1026100090471CBD48414C5F4750494F5F45585457
:10262000495F43616C6C6261636B0000E8F1020812
:102630002E2E2F436F72652F5372632F667265655E
:1026400072746F732E6300004E4F5F544147000059
:1026500000000020BC030020044910B50A680242B3
:1026600002D00860FFF7C0FF10BD0000143C01401D
:102670002DE9F84FDFF8B8A10022012403254FF01F
:102680000F090AF1040BAAF1040E00BF0B6804FA4B
:1026900002F63340B34273D10F7907F00307012FDD
:1026A00001D0022F16D187684FEA420805FA08FCCC
:1026B00027EA0C07D1F80CC00CFA08FC4CEA070C0E
:1026C000C0F808C04768B7430E79C6F300169640B5
:1026D0003E4346600E79F643B6070DD0C7685600F4
:1026E00005FA06FC27EA0C07D1F808C00CFA06FC2C
:1026F0004CEA070CC0F80CC00E7906F00306022E57
:1027000010D1D60800EB8608D8F8206057074FEAAA
:10271000D76C09FA0CF7BE430F6907FA0CF7374379
:10272000C8F8207006684FEA420C05FA0CF7BE4361
:102730000F7907F0030707FA0CF7374307604E6875
:1027400016F4403F6DD03B4E376847F48047376002
:10275000366822F0030706F480460096364E07EBF3
:10276000060CDCF8086897073F0F09FA07F826EA15
:102770000806DFF8C880404503D14FF000081EE08E
:102780004FE0DFF8BC80404502D14FF0010816E071
:10279000DFF8B080404502D14FF002080FE0DFF8CB
:1027A000A880404502D14FF0030808E0DFF89C8084
:1027B000404502D14FF0040801E04FF0070808FA45
:1027C00007F848EA0608CCF80888DAF800605746A7
:1027D000D1F804C09E435FEACC2C00D51E433E6076
:1027E000DBF800605F46D1F804C09E435FEA8C2CA2
:1027F00000D51E433E60DEF800607746D1F804C085
:102800009E435FEA8C3C00D51E433E60084F083F64
:102810003E68D1F804C09E435FEACC3C00D51E431D
:102820003E60521C102AFFF431AFBDE8F88F000063
:10283000083C0140443802400030014000000240A2
:102840000004024000080240000C02400010024058
:102850000AB1816170470904FBE700000148806804
:1028600070470000900000207047000070B5040021
:1028700025D094F83D00002520B984F83C5020462E
:1028800000F03AFB242084F83D002068016821F024
:10289000010101602068016841F400410160206885
:1028A000016821F40041016000F008FD4D4A6168B3
:1028B000914201D84C4900E04C49884201D20120A4
:1028C00070BD4B492368B0FBF1F15E6826F03F060E
:1028D0000E435E606368934206D94FF49673594382
:1028E0004FF47A73B1FBF3F12368491C1E6A26F09A
:1028F0003F06314319626168914210D84900401E79
:10290000B0FBF1F2521CC2F30B02042A01D20420E4
:1029100022E0B0FBF1F0401CC0F30B001CE0A26809
:10292000F2B301EBC10303EB0116431EB3FBF6F355
:102930005B1C43F480431B0549D092B301EBC102F9
:1029400002EB0111401EB0FBF1F0401CC0F30B0084
:1029500040F4804040F400402168CA694CF6FF739F
:102960009A431043C861D4E9071001432068026804
:1029700022F0C00211430160D4E903010143206841
:10298000826848F2FF339A4311438160D4E905011C
:1029900008432168CA6822F0FF021043C86001E0C2
:1029A0000EE016E02068016841F001010160256435
:1029B000202084F83D00256384F83E50002070BD3F
:1029C00001EB4106431EB3FBF6F35B1CB3E70120AA
:1029D000C2E701EB4101401EB0FBF1F0401CC0F327
:1029E0000B00B7E7A086010080841E0000093D00AF
:1029F00040420F00704770472DE9FF4F83B09A4661
:102A0000DDE9118793460446DDF84090FFF726FF85
:102A1000054694F83D00202870D1192301227449FD
:102A20002046009501F054FB0028F5D194F83C00B5
:102A3000012863D0012084F83C0020680168C907A0
:102A400003D1016841F0010101602068016821F4AF
:102A500000610160222084F83D00402084F83E009F
:102A600000262664C4F82490A4F82A80608D20856E
:102A70006048E062CDE9007553465A462046049905
:102A800001F028FA002879D1208DD0B1012821D079
:102A90000228206824D0416980690090208D032895
:102AA00066D801282BD0544902283B464FF000023B
:102AB000009557D08846204601F00AFB00285DD1DA
:102AC0003AE02068416981690091016841F4007130
:102AD00001607DE02068016821F480610160F0E719
:102AE000016821F4806101602068016841F400619F
:102AF0000160206841698069009069E075E02A46BC
:102B00003946204601F08AFB88BB54E02068016802
:102B100041F40071016020680069616A0870606AB0
:102B2000401C6062218D491E2185618D491E618591
:102B300021680969017042E02068016821F4806120
:102B4000016020680069616A0870606A401C606208
:102B5000208D401E2085608D401E60853B460022F2
:102B600041460095204601F0B3FA00B9CEE705E0F2
:102B70002A463946204601F051FB18B1012007B022
:102B8000BDE8F08F20680069616A0870606A401CC7
:102B90006062208D401E81B22185608D401E60855F
:102BA00020684269D243520712D4032903D1016835
:102BB00021F48061016020680069616A0870606AC0
:102BC000401C6062208D401E2085608D401E608507
:102BD000208D00287FF462AF202084F83D0084F827
:102BE0003E6084F83C600020C9E70220C7E700008F
:102BF000020010000000FFFF040001002DE9FC5F4F
:102C0000994692468B460446DDF83080FFF726FE53
:102C100000250646009594F83D00202828D16648F6
:102C200046F2A81120270068B0FBF1F000EBC001CC
:102C300001EB001000900098401E009010D020681A
:102C40008069C0438007F6D594F83C0001280FD076
:102C5000012084F83C0020680168C9070BD00EE011
:102C600044F8305F6773A573206940F0200020614D
:102C70000220BDE8FC9F016841F00101016020686D
:102C8000016821F400610160222084F83D004020A9
:102C900084F83E002564C4F824800D986085608D1A
:102CA00020854648E062C4F844B0C4F848A0C4F89F
:102CB0004C902565208D4FF02308002863D0A06B31
:102CC00000B33F49C163A16B3E48C864A06B056473
:102CD000A06B4564A06B8564A06B05652168238D9E
:102CE0001031626AA06BFFF79FFBA0B184F83D70C2
:102CF00084F83E5054F8400F40F0100044F80409A6
:102D0000257049E084F83D7084F83E5054F8400F37
:102D100040F08000F2E7CDE900864B465246594626
:102D2000204601F0D7F888B1A06BFFF72FFAA06B0F
:102D3000C5632068016821F480610160258565858F
:102D40002068016821F00101016025E0208D012843
:102D5000206813D0416841F4805141602068416986
:102D60008169009184F83C50416841F48071416070
:102D70002068416841F4006141601BE0016821F472
:102D800080610160EAE7CDE900864B46524659462C
:102D9000204601F09FF808B101206AE720684169E8
:102DA00081690091016841F40071016084F83D700F
:102DB00084F83C5000205CE79C0000200000FFFFEE
:102DC000933D0008533D00082DE9FF4F83B09A461C
:102DD000DDE9119793460446DDF84080FFF73EFD9C
:102DE000054694F83D0020287FD11923012240494F
:102DF0002046009501F06CF9002876D194F83C004B
:102E0000012872D0012084F83C0020680168C907BD
:102E100003D1016841F0010101602068016821F4DB
:102E200000610160212084F83D00402084F83E00CC
:102E300000262664C4F82480A4F82A90608D20859A
:102E40002C48E062CDE9007553465A462046049965
:102E500001F0BEF870B930E02A463946204601F04C
:102E600015FA58B1206C042804D12068016841F497
:102E700000710160012007B0BDE8F08F606A216831
:102E800000780861606A401C6062218D491E89B229
:102E90002185628D521E628522685369DB435B0780
:102EA0000BD469B100781061606A401C6062208DAB
:102EB000401E2085608D401E6085208D0028CBD16E
:102EC0002A463946204601F0D7F80028CAD154F8DE
:102ED0003D0B016841F400710160202004F81E09D7
:102EE000E67766770020C6E7FFE70220C3E7000029
:102EF000020010000000FFFFF0B587B00646142165
:102F00006846FDF718FE27493068884247D12649B0
:102F10000025086840F001000860086800F0010022
:102F20000590086840F0020008600868122400F06C
:102F300002000590881503278DE8B1000420049055
:102F400069461A48FFF794FB10208DE8B10009206C
:102F5000049069461648FFF78BFB13481030016850
:102F600041F4000101600068134C00F4000005907A
:102F7000104820604FF00070C4E90105C013C4E997
:102F8000035065618001A561C4E907502046656270
:102F9000FFF7E0F908B1FFF7F7F8B463A66307B0ED
:102FA000F0BD0000005C00403038024000000240EC
:102FB0000004024028600240AC04002070477047C3
:102FC00002488168027811448160704790000020B7
:102FD0000B4810B5016841F400710160016841F4CB
:102FE00080610160016841F480710160032000F09C
:102FF00099F8002000F006F800F04AF8002010BD13
:10300000003C024030B505461C4887B000240168EA
:1030100041F480310160006806A900F4803000901E
:1030200001A800F02BF900F059F91549154AB0FB39
:10303000F1F11548491E026040F2E732C0E903246D
:10304000C0E90114846100F00FFD040012D10E48A4
:1030500000F038FD04000DD1182000F035F8102DD7
:1030600007D200222946182000F03CF807480560E6
:1030700000E0012407B0204630BD00004438024083
:1030800040420F00004001400C0600209400002048
:103090000C4882B0016841F480410160006800F48E
:1030A000804000900748001F016841F08051016096
:1030B0000068002200F0805000900F21901E02B0A6
:1030C00000F010B844380240002809DB00F01F026D
:1030D000012191404009800000F1E020C0F800117A
:1030E00070470000F0B40E4B1B680C46C3F302237C
:1030F000C3F10705042D00D90425191D072901D2A4
:10310000002300E0DB1E012606FA05F1491E2140DE
:1031100099409E40761E16403143F0BC01F037BD09
:103120000CED00E0064900F0070208684FF6FF03C7
:10313000184040EA0220034A10430860704700002C
:103140000CED00E00000FA052DE9F0470E46050001
:1031500065D0DFF81481D8F80000F7B200F007005E
:10316000B04207D288F80070D8F8000000F00700DD
:10317000B04254D128683D4C810712D5400703D591
:10318000206840F4E05020602878000703D52068CC
:1031900040F4604020602068A96820F0F0000843F7
:1031A00020602878C0072DD0304968680839012888
:1031B00012D0022813D0032811D0096889070029EA
:1031C0002DDA216821F0030101432160FFF746FB5E
:1031D000814641F2883A0EE009688903EFE7096801
:1031E0008901ECE7FFF73AFBA0EB0901514502D951
:1031F0000320BDE8F0872068696800F00C00B0EBA0
:10320000810FEFD1D8F80010404601F00701B1421C
:1032100007D90770006800F00700B04201D0012014
:10322000E7E72878400705D52068E96820F4E050F2
:10323000084320602878000706D52068296920F413
:10324000604040EAC100206000F058F82168084A58
:10325000C1F30311515CC840064908600648006884
:10326000FFF7D0FE0020C4E7003C024008380240CF
:10327000158903089C000020940000200F220260A2
:103280000C4A136803F003034360136803F0F00370
:103290008360136803F4E053C36012684FF4E05393
:1032A00003EAD20202610448006800F007000860E7
:1032B0007047000008380240003C024004480549BD
:1032C00000680968044AC1F38221515CC840704714
:1032D0009C0000200838024025890308044805495D
:1032E00000680968044AC1F34231515CC840704724
:1032F0009C0000200838024025890308154810B5B5
:10330000006810F00C02144813D01449042A0FD09E
:10331000082A0ED10F4C241F2268236802F03F02B6
:103320005B0207D52068C0F38810A0FB010106E00E
:10333000084610BD2168C1F38811A1FB00010023DC
:10334000FDF770F82168C1F30141491C4900B0FB49
:10335000F1F010BD083802400024F40040787D01EF
:103360002DE9F84F04006ED02078DFF84C93C007A9
:10337000A9F104054AD009F104000168C1F38101F3
:10338000012908D00068C0F3810002280AD1D9F8C9
:103390000000400206D52868800337D56068002801
:1033A000E1D033E06068B0F5803F10D0B0F5A02FD9
:1033B000286810D020F480302860286820F480200D
:1033C00028606068A8B1FFF749FA06460DE0286852
:1033D00040F48030F4E740F480202860F7E700BF35
:1033E000FFF73CFA801B642873D828688003F7D560
:1033F0000CE0FFF733FA064605E000BFFFF72EFAB0
:10340000801B6428F0D828688003F7D42078DFF880
:10341000AC8280074FF0000A3ED5A748001D016826
:1034200011F00C0F08D00068C0F3810002280BD106
:10343000D9F80000400207D42868800716D5E06854
:10344000012800D112E033E1E068B8B10120C8F8EA
:103450000000FFF703FA064605E000BFFFF7FEF99C
:10346000801B0228C0D828688007F7D52868216902
:1034700020F0F80040EAC10028600DE0C8F800A084
:10348000FFF7ECF9064604E0FFF7E8F9801B022895
:103490001FD828688007F7D42078000722D5864FE8
:1034A00087486169703771B101210160FFF7D6F972
:1034B000064604E0FFF7D2F9801B022809D83868D5
:1034C0008007F7D50EE0C0F800A0FFF7C7F9064661
:1034D00005E082E0FFF7C2F9801B02287DD838683A
:1034E0008007F7D42078400768D5DFF8CCB10027F3
:1034F0000BF13C0BDBF80000C0000BD4DBF8001034
:1035000041F08051CBF80010DBF80000012700F0FB
:10351000805000906B4E3068C00510D4306840F485
:1035200080703060FFF79AF9009005E0FFF796F998
:103530000099401A022850D83068C005F6D55E4E72
:10354000A0686C3601280FD00528306810D020F014
:1035500001003060306820F004003060A068B8B12D
:10356000FFF77CF900900FE0306840F00100F4E7CD
:1035700040F004003060F7E7FFF770F90099411A56
:1035800041F28830814266D830688007F4D50EE079
:10359000FFF764F9009007E0FFF760F90099411A1E
:1035A00041F28830814256D830688007F4D42FB178
:1035B000DBF8001021F08051CBF80010A069C8B3EF
:1035C0003D49091D0968C1F3810102294AD0022839
:1035D000504607D0C8F8600000E03CE0FFF73EF935
:1035E00004463BE04746C8F86000FFF737F9064657
:1035F00005E000BFFFF732F9801B02282BD82868AE
:103600008001F7D4D4E907010843A16A2E4A49088A
:1036100002EB0141626A41EA8211084394F82C10DE
:1036200040EA0161C9F8001001203866FFF716F979
:10363000044606E03EE000BFFFF710F9001B022839
:1036400009D828688001F7D534E000BFFFF706F9F4
:10365000001B022802D90320BDE8F88F28688001EA
:10366000F4D427E00128F7D0D9F80000E26900F48B
:10367000800191421CD1226A00F03F01914217D192
:1036800047F6C071626A0140B1EB821F10D1A26A95
:103690004FF0FF3300F4403103EB5202B1EB024F25
:1036A00006D194F82C1000F07060B0EB016F01D0DF
:1036B0000120D1E70020CFE7043802400000474254
:1036C000800E4742007000400000FFFF704770B559
:1036D000040009D0606A002540B125616561A562DA
:1036E00094F8510040B10CE0012070BD6068B0F565
:1036F000827FF4D0E561F2E784F85050204600F074
:1037000045F8022084F851002068016821F040014A
:103710000160A088218900F4827001F4044108430B
:10372000A18901F400610843217C01F002010843F2
:10373000217D01F001010843218B01F40071084350
:10374000217F01F03801084394F8201001F0800136
:103750000843218D01F40051084321680860A069E5
:10376000042101EA104094F8241001F010010843EC
:10377000216848602068C16921F40061C161656504
:10378000012084F85100002070BD000070B586B0A3
:10379000064614216846FDF7CEF91F493068884275
:1037A00038D11E480025016841F48041016000685D
:1037B00000F48040059019481038016841F002017A
:1037C00001600068694600F0020005904FF4204057
:1037D00000900220CDE9010503200390052004900C
:1037E0000F48FEF745FF104C0E48C4E90005402085
:1037F000C4E902050001C4E904058001A561C4E92A
:10380000075020466562FEF7A5FD08B1FEF7BCFC37
:10381000B464A66306B070BD003800404038024072
:103820000004024070600240640500202DE9F84F5A
:10383000984616468A460446FFF710F8814694F8E3
:10384000510001281ED1BAF1000F73D0002E71D0A3
:1038500094F85000012815D0012784F850700320F7
:1038600084F8510000256565C4F830A0A686E68678
:10387000A563A587E58765642564A068B0F5004F5A
:1038800003D00CE00220BDE8F88F2068016821F029
:10389000400101602068016841F4804101602068B6
:1038A0000168490603D4016841F040010160E06805
:1038B000B0F5006F606803D048B3012E27D047E011
:1038C00008B1012E1FD1206B21680088C86006E076
:1038D00020688168890709D5216B0988C160206B40
:1038E000801C2063E08E401EE0860CE0FEF7B6FFF1
:1038F000A0EB0901414503D3B8F1FF3F03D035E008
:10390000B8F1000F32D0E08E0028E1D123E0206B27
:1039100021680078087306E02068816889070AD565
:10392000216B09780173206B401C2063E08E401EE0
:10393000E0860DE02BE0FEF791FFA0EB0901414589
:1039400003D3B8F1FF3F03D010E0B8F1000F0DD062
:10395000E08E0028E0D14A464146204600F074FE41
:1039600008B120206065A06830B109E084F851708A
:1039700084F85050032086E72068C1688068009072
:1039800084F8517004F8505F60680028F3D001207B
:1039900079E7000070B5044690F8510001281CD169
:1039A000C9B1C2B194F85000012816D0012084F8A2
:1039B0005000032084F85100002565652163A2862C
:1039C000E286A56365642564A587E587A068B0F5F0
:1039D000004F04D00DE0012070BD022070BD2068B2
:1039E000016821F0400101602068016841F48041D4
:1039F0000160A16C17480864A16C1748C863A16CEA
:103A00001648C864A06C0565E38E2268216B0C32F1
:103A1000A06CFEF709FD30B1606D40F010006065EC
:103A200084F85050D7E720680168490603D401683C
:103A300041F04001016084F850502068416841F035
:103A4000200141602068416841F00201416000208E
:103A500070BD0000DB450008E5450008B9450008D9
:103A6000704770477047704710B5040003D094F852
:103A70003D0010B107E0012010BD002084F83C009B
:103A8000204600F01EF8022084F83D00211D206829
:103A900000F0FEFE012084F8460084F83E0084F821
:103AA0003F0084F8400084F8410084F8420084F824
:103AB000430084F8440084F8450084F83D00002069
:103AC00010BD704790F83D10012901D001207047CA
:103AD000022180F83D100168CA6842F00102CA6004
:103AE00000680E4988420ED0B0F1804F0BD00C49CF
:103AF000884208D00B49884205D00B49884202D041
:103B00000A49884204D1816801F00701062903D0DF
:103B1000016841F001010160002070470000014090
:103B20000004004000080040000C0040004001403C
:103B300070472DE9F04104460068C66805694FF0FA
:103B40000007A90713D5B10711D5F91E016101209E
:103B50002077206880698007204602D0FFF7E8FFC1
:103B600004E000F07EF8204600F07CF82777680734
:103B700016D5700714D521686FF004000861022083
:103B800020772068806910F4407F204602D0FFF73C
:103B9000CFFF04E000F065F8204600F063F82777D7
:103BA000280715D5300713D521686FF00800086184
:103BB000042020772068C0698007204602D0FFF7E4
:103BC000B7FF04E000F04DF8204600F04BF82777EF
:103BD000E80616D5F00614D521686FF010000861CC
:103BE000082020772068C06910F4407F204602D06A
:103BF000FFF79EFF04E000F034F8204600F032F8B2
:103C00002777E80708D0F00706D021686FF0010099
:103C10000861204600F028F8280608D5300606D5A9
:103C200021686FF0800008612046FFF71BFF6806DF
:103C300008D5700606D521686FF04000086120465F
:103C400000F01CF8A8060AD5B00608D521686FF068
:103C5000200008612046BDE8F041FFF704BFBDE841
:103C6000F08170477047000000680349884201D125
:103C7000FFF7A6B97047000000400140704770B5DB
:103C8000040004D094F84100002510B106E00120A2
:103C900070BD84F84050204600F024F8242084F8B9
:103CA00041002068C16821F40051C160204600F045
:103CB00041FE2068016921F4904101612068416959
:103CC00021F02A0141612068C16841F40051C160BE
:103CD0006564202084F8410084F842006563002078
:103CE00070BD000010B586B0044614216846FCF78C
:103CF00022FF14492068884221D11348002102681C
:103D000042F010020260006800F0100005900E48BA
:103D10001438026842F001020260006800F00100FD
:103D200005904FF4C06000900220CDE9010103200E
:103D300003900720049069460448FEF799FC06B0FA
:103D400010BD000000100140443802400000024055
:103D5000FEE770B5846B0025616B01B1CD63A16B8B
:103D600001B1CD63FEF724FA022811D02068016862
:103D700021F4806101606585202084F83D0084F88D
:103D80003E50206C40F0100020642046FEF76CFD91
:103D900070BD2DE9F041846B94F83D2094F83E50BD
:103DA000E16A2068436823F440734360636B00203A
:103DB00003B1D863A36B03B1D863212333EA0207AD
:103DC0004FF022060CD036EA020701D1202D07D091
:103DD00094F83E20002A21D0628D012A20D024E0D0
:103DE00021684D6825F400654D6060852820292AEA
:103DF00002D02A2A07D00CE0236384F83D00204635
:103E0000FFF7DDF805E0266384F83D002046FFF764
:103E1000D5F82068416841F440714160BDE8F08107
:103E20002268136823F4806313602268536823F4C4
:103E30004073536011F5803F06D0082904D0B1F1DA
:103E40002A4F01D0202904D12268136843F400735B
:103E500013602268536823F48053536022685368C8
:103E600023F4006353606085226C1AB12046FEF78C
:103E7000FBFCD3E7202284F83D2094F83E2084F810
:103E80003E00402A09D0082902D0202900D0122063
:103E900020632046FEF7AEFDC0E720632046FEF714
:103EA000AAFDBBE701684A69D24352050FD46FF4FB
:103EB00080624A61002140F8301F202242738173E2
:103EC000026942F004020261017301207047002080
:103ED000704700002DE9F84F0446006889460B9DA5
:103EE00001689846174641F48061016020680168C6
:103EF00041F48071016000954FF0011B002259468A
:103F000020460A9B00F0E4F84FF4007A40B12068A4
:103F10000068C00501D5C4F840A00320BDE8F88FB3
:103F2000216809F0FE0008612B46284920460A9ABC
:103F300000F016F9F0BB20684169806900902A46BC
:103F400020460A9900F0A2F940B1206C04283AD129
:103F50002068016841F40071016034E0FEB2B8F1FC
:103F6000010F09D02168380A08612A4620460A99BB
:103F700000F08CF90028E8D1206806612A46204626
:103F80000A9900F083F90028DFD12068016841F424
:103F90008071016000950022594620460A9B00F07E
:103FA00097F80028B3D1216809F0FF0040F0010024
:103FB000086100E007E02B46044920460A9A00F019
:103FC000CFF80028AAD00120A8E7000002000100D5
:103FD0002DE9F843044600680D46DDE908970168BD
:103FE0009846164641F4807101604B4600224FF01E
:103FF00001112046009700F06BF848B12068006876
:10400000C00502D54FF4007020640320BDE8F8839A
:10401000216805F0FE0008613B464A4615492046E6
:1040200000F09EF888B920684169806900903A469E
:104030004946204600F02AF948B1206C042804D1F2
:104040002068016841F4007101600120DEE7F5B2EB
:10405000B8F1010F09D02168300A08613A46494693
:10406000204600F013F90028E7D120680561002000
:10407000CCE700000200010070B516460D4604466C
:104080001EE02046FFF70EFF08B1012070BD681C3E
:1040900016D0FEF7E3FB801BA84200D885B9206844
:1040A0004069C04340070BD5002044F8300F202161
:1040B0006173A073216941F0200121612073E4E75D
:1040C00020684069C0434007DBD4002070BD000079
:1040D0002DE9F047984617460D460446C1F30746BA
:1040E000DDF820902AE000BFB8F1FF3F26D0FEF7B0
:1040F000B5FBA0EB0901414502D8B8F1000F1DD175
:104100002068012E16D0806925EA00000004000C0A
:1041100012D00020B84211D1002044F8300F2021E5
:104120006173A073216941F0200121612073012096
:10413000BDE8F0874069E7E70120EBE72068012E42
:104140000AD0806925EA00000004000C06D0002097
:10415000B842C9D00020EBE74069F3E70120F7E758
:104160002DE9F047984616460D4604464FF00009E3
:104170004FF0200AC1F3074723E020684069C0439D
:10418000400515D42068016841F400710160216880
:104190006FF480604861C4F8309084F83DA084F8E2
:1041A0003E90216C41F00401216484F83C9021E0B0
:1041B000701C06D0FEF752FBA0EB0800B04203D8FB
:1041C00016B1012F1FD021E02068012F15D0806982
:1041D00025EA00000004000C18D000BF44F8309F0E
:1041E00084F80DA084F80E90216941F0200121612E
:1041F00084F80C900120BDE8F087406925EA0000B2
:104200000004000CEAD12068406901E02068806960
:1042100025EA00000004000CAFD1ECE72DE9F041E5
:10422000002590460E460446202728E04069C043FA
:10423000C0060CD454F8301B6FF01000486144F8ED
:1042400010596777A577206A2062257714E0FEF77A
:1042500005FBA0EB0800B04200D886B92068406991
:10426000C04340060BD544F8305F6773A5732069DF
:1042700040F02000206125730120BDE8F081206816
:104280004169C9434906D1D40020F6E770B5164606
:104290000D4604461EE02046FFF704FE08B101204B
:1042A00070BD681C16D0FEF7D9FA801BA84200D852
:1042B00085B920684069C04300060BD5002044F84A
:1042C000300F20216173A073216941F02001216129
:1042D0002073E4E720684069C0430006DBD4002077
:1042E00070BD22F025FC0520FEF7D6F8F9E70000A6
:1042F0000D4808B5016841F4001101600068002212
:1043000000F40010009005210C20FEF7EBFE0C20BD
:10431000FEF7DAFE002205210F20FEF7E3FEBDE8DE
:1043200008400F20FEF7D0BE303802401CB50D4AC1
:1043300000210D4823F0BCFD0C4C0A4A00216061AD
:1043400024320B4823F0B4FD0021A0611920CDE9EF
:1043500000010B464FF4806206A109482AF0C0FC18
:104360001CBD0000A0F102086D47000800000020FD
:10437000E342000873797374656D5F696E69740058
:1043800051CB02082DE9F04387B014216846FCF7B1
:10439000D2FB2F480025016841F00401016001684B
:1043A00001F004010591016841F08001016001689C
:1043B00001F080010591016841F00201016001688E
:1043C00001F002010591016841F0010101600068FE
:1043D000DFF8808000F00100012205909102404644
:1043E000FEF736FA00224FF4A0414046FEF730FABD
:1043F0000122DFF86490D70339464846FEF728FAD1
:10440000042000904FF404100124CDE90104694612
:104410004046FEF72DF94FF4A84003268DE87100C1
:1044200069464046FEF724F901AA009782E8700029
:1044300069464846FEF71CF9002205210820FEF7D0
:1044400051FE0820FEF740FE07B0BDE8F0830000F3
:104450003038024000040240000002400D4810B510
:104460000B4901600C49416000214FF4804281609A
:10447000C0E9031241618161C1610162FEF7F6F991
:10448000002803D0BDE81040FDF77EBE10BD00003F
:10449000005C004058040020A0860100104810B5C0
:1044A0000E4901604FF48271416000210222816057
:1044B000C0E90312012242615202C0E906210162F1
:1044C000416281620A21C162FFF701F9002803D02D
:1044D000BDE81040FDF758BE10BD00000038004098
:1044E0000C0500200C4810B50A4901604FF4E13179
:1044F0004160002181600C22C160C0E90412816129
:10450000C161FFF7BCFB002803D0BDE81040FDF7F8
:104510003BBE10BD00100140C4050020FEE7FEE7D1
:1045200000F090BA2DE9F04107460B4815460E46BB
:10453000007808B900F086FAEFF31184202080F3A8
:1045400011882A463146384600F008F8E1B281F376
:104550001188BDE8F08100004C56002070B50E4671
:10456000144900EB400001EBC0051446E86A183519
:1045700020B101280FD0022805D113E0284600F011
:1045800095FAA04201D2002411E022463146284685
:1045900000F0C4FA0BE0284600F088FAA042F4D2FA
:1045A0000446F2E73146284600F08BFA04462046DE
:1045B00070BD00004C56002010B5806B01684A6841
:1045C00022F003024A60416D41F010014165012172
:1045D00080F85110FFF77AF810BD10B5806BFFF727
:1045E00040FA10BD38B50546846BFEF737F9024630
:1045F00028680068C00523D42068416821F02001A4
:1046000041602068416821F0020141606421204638
:1046100000F01AF818B1606D40F020006065A068E5
:10462000002118B92068C26880680090E1860120E6
:1046300084F85100606D18B12046FFF747F838BD87
:104640002046FFF70DFA38BDF8B515460E460B4665
:10465000009204460122022100F02CF8A0B9134870
:1046600013490068B0FBF1F04FF47A7148430090B1
:104670006068B0F5827F0DD133460022802120464C
:10468000009500F017F870B1606D40F02000606593
:104690000320F8BD009830B1401E0090206880686B
:1046A000C0430006F6D50020F8BD00009C000020A5
:1046B00000366E012DE9F8431E46914688460446B1
:1046C000089DFEF7CBF8401B351AFEF7C7F80746E2
:1046D00025480068C0F3CB30684338E0701C37D001
:1046E000FEF7BCF8C01BA84203D215B1009860B316
:1046F0002CE02068416821F0E00141606068B0F57D
:10470000827F0BD1A068B0F5004F02D0B0F5806F6A
:1047100004D12068016821F040010160A06AB0F571
:10472000005F09D12068016821F400510160206810
:10473000016841F400510160012084F8510000201B
:1047400084F850000320BDE8F8830025401E009047
:104750002068816838EA010004D000214945BDD1B4
:104760000020F0E70121F9E79C0000201CB5C725D7
:104770004FF47A7406A0CDE900500A4B0AA210A1AA
:1047800003200CF033FE204623F056FBF2E7000036
:10479000537461727444656661756C745461736BB3
:1047A0000D0A0000FFF102082E2E2F436F72652FB5
:1047B0005372632F6672656572746F732E630000A7
:1047C0004E4F5F544147000010B54FF0E0200069A4
:1047D0002AF0DEFA012803D0BDE810402AF00CB818
:1047E00010BD000030B593B030216846FCF7A3F946
:1047F00014210CA8FCF79FF91C480025016841F022
:1048000080510160006800F08050119018480168E4
:1048100041F4404101600068022400F440401190DE
:1048200001200090000401908001CDE906400C2099
:1048300008906020CDE9090404200B906846FEF73B
:104840008FFD08B172B6FEE70CA90F2081E8310098
:104850004FF48050CDE90F0503210CA8FEF774FC3E
:10486000002801D072B6FEE713B030BD40380240D8
:10487000007000400248016841F470010160704717
:1048800088ED00E00148FFF754B900000C06002055
:10489000F0B50268204B214C9F03214D214E9842D8
:1048A00007D0B84205D0A04203D0A84201D0B04200
:1048B00004D122F0700C4A6842EA0C02984210D0EF
:1048C000B8420ED0A0420CD0A8420AD0B04208D0C4
:1048D000154CA04205D0154CA04202D0144CA04269
:1048E00003D122F44074CA6822434C6922F080024A
:1048F000224302608A68C2620A688262984201D1D9
:1049000009690163012141610169C90703D0016996
:1049100021F001010161F0BD0000014000040040F0
:1049200000080040000C00400040014000440140ED
:104930000048014070B5044600680169E26821F44E
:104940004051114301612169A068E269084361692E
:10495000114308432168CA6849F20C639A43024331
:10496000CA6020684169A26921F440711143416124
:1049700031492068884202D03049884202D1FEF78E
:10498000ADFC01E0FEF79AFCE269002319216425E1
:104990003226B2F5004F626828D0A0FB0101930FC8
:1049A0009200FBF73FFD0146B0FBF5F06FF01802F7
:1049B000504301EB800006EB0010B0FBF5F000F077
:1049C000F002B1FBF5F002EB0012B1FBF5F06FF075
:1049D0001803584301EB800006EB0010B0FBF5F024
:1049E00000F00F0021681044886070BDA0FB010139
:1049F00092185B41FBF716FD0146B0FBF5F0020192
:104A0000B1FBF5F06FF01803584301EB800006EBA3
:104A1000C000B0FBF5F000F0F80002EB4002B1FB83
:104A2000F5F0584301EB800006EBC000B0FBF5F059
:104A300000F00700D6E7000000100140001401401C
:104A4000FEE7000010B5124C03202061606111A048
:104A5000A06104F1A800E0614FF4806020620020B2
:104A6000A0626062E0620BA1216604F59561616657
:104A70001021A1662067E066606709A1E01DFBF7D1
:104A80002BFF08A12046FBF727FF2020A07110BDB7
:104A90004C5600205465726D696E616C0000000018
:104AA0005254540053454747455200000269C168BB
:104AB0008A4203D88068401A104400E0501A401E11
:104AC00070472DE9F047C4681746894606464FF0FF
:104AD00000083069A04201D9051B02E0B168201A24
:104AE0000D1AB0686D1E001BA84200D80546BD42D5
:104AF00000D33D4670682A4620444946FBF77AFFBA
:104B0000B0687F1B2C44A844A944A04200D10024D3
:104B1000F460002FDDD14046BDE8F0872DE9F0417B
:104B200004468846D4E90207C51BE168606816465A
:104B30000844B54206D94146FBF75CFFB819E0606E
:104B4000BDE8F0812A464146FBF754FF761B08EB8F
:104B5000050132466068FBF74DFFE660F0E703B4FD
:104B600001984100009850EAC12018BF04204A0D66
:104B700018BF40F0010040F2FF72B2EB515F08BF76
:104B800040F00200012808BF052002B07047090765
:104B9000090E002804DB00F1E02080F800147047C3
:104BA00000F00F0000F1E02080F8141D704770B590
:104BB000044600256FF02F0608E02068411C2160A4
:104BC000007805EB850106EB410145182068007867
:104BD00000F004F80028F0D1284670BD30380928CC
:104BE00001D8012070470020704730380A2801D2D0
:104BF000012070470020704710B54421074800F09D
:104C000085FF00220A21064821F05AFF054CA060CA
:104C100002F05AF80020207010BD0000B8030120F7
:104C20007D6D0008980200202DE9F0470E46814670
:104C300017461146304600F01CF94FF0FF3A0028A5
:104C40007DD000223946304600F0BFF800284FF0F2
:104C5000000075D1B6F90480B6F900305246A8EBD1
:104C60000301491C0AFA81F10FFA81FAB6F906C06C
:104C7000B6F90210ACEB010C0CF1010C02FA8CF24B
:104C8000B7F802C012B2ACEB010C0FFA8CFCBCF10D
:104C9000000F0EDD63F30F0468F30F0501EB0C004A
:104CA00061F31F4460F31F45C9F800400120C9F8B3
:104CB0000450B7F906107388CB1AD21A12B2002A20
:104CC00013DDB6F9063099420FDA338863F30F0427
:104CD000B38861F31F4463F30F05114461F31F456B
:104CE00009EBC001401C0C604D60B7F90220B6F919
:104CF00002108A4200DD1146B7F90630B6F90620E7
:104D0000934200DA1A463B88B6F900C0521AA3EB68
:104D10000C031BB212B2002B10DD002A0EDD63441F
:104D200063F30F058B1863F31F456CF30F0409EB56
:104D3000C00361F31F441C605D60401C01E01AE089
:104D400017E0B7F9043036889F1BAAEB070636B286
:104D5000002E0EDD63F30F0461F31F44334463F34D
:104D60000F05114461F31F4509EBC001401C0C60A5
:104D70004D60BDE8F0875046FBE770B5B1F90030F3
:104D8000B2F90040A34200DC23460380B1F902508F
:104D9000B2F90240A54200DD2C464480B1F904601E
:104DA000B2F90450AE4200DA35468580B1F90610FA
:104DB000B2F90620914200DB1146C1800120AB42CE
:104DC00001DC8C4200DD002070BDF8B50D460446C4
:104DD000B0F90000B1F900101646884247DBB4F97B
:104DE0000210B5F90220914241DBB4F90410B5F983
:104DF000042091423BDCB4F90610B5F9062091423B
:104E000035DC96B3ADF800006088ADF8020032469C
:104E10006946284600F099F8002827D0A088ADF808
:104E200000006088ADF8020032466946284600F06E
:104E30008CF800281AD02088ADF80000E088ADF882
:104E4000020032466946284600F07FF800280DD05F
:104E5000A088ADF80000E088ADF80200324669464F
:104E6000284600F072F8002800D00120F8BD00208C
:104E7000F8BDB0F90020B1F904309A4213DCB0F962
:104E80000420B1F900309A420DDBB0F90220B1F9EB
:104E900006309A4207DCB0F90600B1F902108842E8
:104EA00001DB0120704700207047F8B50D4604462D
:104EB000B0F90400B1F900101646884243DBB4F99A
:104EC0000600B5F9021088423DDBB4F90000B5F9DF
:104ED0000410884237DCB4F90210B5F9062091427B
:104EE00031DC76B3ADF800006088ADF802003246E0
:104EF0006946284600F029F818BBA088ADF80000E4
:104F00006088ADF8020032466946284600F01DF878
:104F1000B8B92088ADF80000E088ADF8020032464C
:104F20006946284600F011F858B9A088ADF800008D
:104F3000E088ADF8020032466946284600F005F8E0
:104F400008B10020F8BD0120F8BD2DE9FC41144650
:104F50000E46B1F90020B0F9001005468A423ADB4E
:104F6000B5F90400824236DCB6F90270B5F90220C8
:104F7000974230DBB5F906309F422CDC002C75DD02
:104F8000401A9A1A401C521C00B212B200EBD070A8
:104F900002EBD27240105210904200DB1046844265
:104FA00000DD0446ADF80010288800222044ADF84A
:104FB00004006888ADF80200688831462044ADF8E6
:104FC00006006846FFF7C1FF40B1BDF80400204469
:104FD000ADF804003FE00020BDE8FC81E888002235
:104FE000001BADF80200E888ADF8060031466846BF
:104FF000FFF7ABFF28B1BDF804002044ADF8040072
:1050000011E0A8880022001BADF80000A888ADF8C8
:10501000040031466846FFF798FF50B1BDF8000024
:10502000001BADF80000BDF80200001BADF8020047
:1050300016E06888ADF80200688800222044ADF8C8
:10504000060031466846FFF780FF70B1BDF80000EA
:10505000001BADF80000BDF806002044ADF80600C6
:10506000314668461FF0C8F8B6E7FFE70120B3E70E
:1050700010B5B1F90040B2F900309C4200DA234685
:105080000380B1F90240B2F902309C4200DA2346B3
:105090004380B1F90440B2F904309C4200DD23465C
:1050A0008380B1F90610B2F90620914200DC114666
:1050B000C18010BD2DE9F0418AB0074621F0AEFC59
:1050C0000026A34C054600960FB1F86801E014F0E5
:1050D00001F8606000691EF08BFF6068406908B1EC
:1050E0001EF086FF6068C0691EF082FF6068006A7B
:1050F0001EF07EFF6068016991B11FF03FF924F056
:10510000A7F923F0CDFE6068B0F85011E9B300684C
:10511000017CC9071FD0C0684068E0B1002715E0D6
:10512000A0F850610AB0BDE8F081C11991F83011C2
:1051300051B900F5AC7000F040FD616801EBC701AA
:105140000A6B0260496B41607F1CBFB26068B0F8B7
:105150005011B942E9D860684FF4807130301AF0CC
:105160006DFB6068202100F598701AF067FB60689D
:10517000A0F85061284621F04BFC00906068006860
:10518000436A13B12268009998471AF09BF900F01E
:105190002BF900F0FDF86F4D6F69D7BB19F043FF95
:1051A00019F03CF8074600227F211EF003FE13F0A1
:1051B00071F90146002238461EF0E6FD13F0DFFBD0
:1051C0000146002238461EF06EFE002203213846BA
:1051D0001EF055FE0022032138461EF041FE00223B
:1051E000032138461EF041FE0022032138461EF0FE
:1051F00041FE0022032138461EF050FE56A13846DB
:1052000019F092FE00231A46062138461AF002FFD2
:105210006F61286821F0FCFB4FF4967840450CD272
:10522000206841F28831884234D96968009808447E
:105230006860A868401CA8602CE021F0EFFB2860A3
:105240006068406828B100684FF47A71B1FBF0F0F3
:1052500000E06420696809B901216960A968F1B1B9
:105260004FF47A7251436A68B1FBF2F46E60AE603B
:10527000844200D90446286920442861E868401C1B
:10528000E86021F04FFCC0F16403224633A13846A8
:1052900019F081FE2E4D08356C6814B137E00446D4
:1052A000E4E719F0C0FE18F0B9FF044600227F21A0
:1052B0001EF080FD13F0EEF80146002220461EF09D
:1052C00063FD13F05CFB0146002220461EF0EBFD5F
:1052D0000022032120461EF0D2FD00220321204699
:1052E0001EF0BEFD0022032120461EF0BEFD00225E
:1052F000032120461EF0BEFD17A1204619F014FE22
:1053000000231A46042120461AF084FE6C602868A7
:1053100021F07EFB40457FF605AF21F07FFB286042
:1053200002A81AF067F904990298401A820A5142B9
:1053300000EB81206621B0FBF1F39DF821109DF870
:105340002000CDE9000109A1204619F024FEE9E67C
:1053500058010020240201203F000000257520464E
:1053600050530A25752525204350550025752E25B7
:1053700075206B42207573656420282564202525DF
:10538000290A2564252520667261672E0000000029
:1053900070B50A4D002400BFC4EBC40655F82600C2
:1053A00008B11AF003F905EB86001C211AF046FA41
:1053B000641CE4B2042CEFD370BD000094040120FF
:1053C000084949680AE04A68824202D00A68824273
:1053D00003D10A7E42F001020A7649690029F2D11E
:1053E000704700002C010020704700000421014894
:1053F00000F08CBBAC0301202021014800F086BBEB
:10540000C40301202DE9FF410446DDE90A671D00C0
:105410004FF0000002D1B6F5807F2BD003900190B1
:105420000290ADF80C100090ADF80410ADF80A2011
:10543000ADF80E203B463246294668461EF03CFE3B
:105440003B463246294601A81EF036FE3B46324610
:10545000294602A81EF030FE3B463246294603A8E4
:105460001EF02AFEBDF90000BDF90430984209DAA9
:10547000054608E02080491E6080A180521EE2801F
:10548000BDE8FF811D46BDF90820BDF90C108A4218
:1054900001DA164600E00E46B54203DA984206DB12
:1054A000184604E08A4201DA104600E00846801EF1
:1054B0002080BDF90030BDF90420934201DD1D4676
:1054C00000E01546BDF90800BDF90C10884201DD69
:1054D000064600E00E46B54205DD934201DD194661
:1054E00004E0114602E0884200DD0146891CA180EB
:1054F000BDF90230BDF90620934201DA1D4600E0F5
:105500001546BDF90A00BDF90E10884201DA0646BB
:1055100000E00E46B54205DA934201DA194604E08E
:10552000114602E0884200DA0146891E6180BDF919
:105530000230BDF90620934201DD1D4600E015460C
:10554000BDF90A00BDF90E10884201DD064600E0F3
:105550000E46B54205DD934201DD194604E01146D1
:1055600002E0884200DD0146891CE18088E70000F6
:105570002DE9F04115460E460746114C21F04EFA32
:1055800080462B4632463946204617F08BFF20B125
:105590000020A062E06950B110E02C2120461AF0F2
:1055A0004DF94FF00040A0620020BDE8F081404678
:1055B00021F02EFAE06108B90120E0612046F4E70D
:1055C000E803012010B51421074800F09FFA17F0F6
:1055D0002FFF40B1054901600549416005498160DF
:1055E0000549C16010BDFEE7D003012005CE0108CA
:1055F00081D1010851D30108D1CD010870B50D4604
:105600000446102128461AF019F92068007801286C
:1056100004D0022807D0042807D008E0A08A2880F8
:10562000E08A688003E0E06800E00A2068602068A3
:105630004268002A03D02946BDE87040104770BD7B
:105640002DE9FE430446808A10B9E08A002874D010
:10565000D4F82C805FEA080010D120460CF021FE1F
:105660005FEA000869D020460FF09CFA0022092169
:10567000404616F011FE607880075ED44FF48079C2
:1056800000274E464546002128461CF063FD38445D
:1056900007B2002128461CF07BFDC11700EB11600A
:1056A000001210FB06F006B228461BF041FD050073
:1056B000E9D10FB94E450CD0784201B24FF4803099
:1056C00090FBF6F002B26B4604F1140000951EF058
:1056D000F3FCADF80450ADF8085094F8400000F029
:1056E0000F000328404616D01BF074FE06464046C5
:1056F0001BF02AFD03460C200090B4F91610324628
:1057000040460BF001FDADF8080040461BF06EFD71
:10571000C10713D018E01BF0F1FD064640461BF010
:105720008DFD024603200090B4F914103346404624
:105730000BF0EAFCADF80400E7E736E0BDF9041031
:10574000002901DDADF80450810705D4BDF904102E
:10575000002901DAADF80450410705D4BDF908105D
:10576000002901DDADF80850000705D4BDF9080097
:10577000002801DAADF8085002AA01A9204624F059
:10578000EBFABDF90820BDF90410404600F08AFA92
:105790006078800709D4208BBDF80410084420836A
:1057A000608BBDF8081008446083BDE8FE832DE9D6
:1057B000FC5F0446C06A5FEA000B71D094F84000B9
:1057C00000076DD018F0F8F9019000684021457E7F
:1057D00058461CF009FE4FF0000818B9A4F81E80C6
:1057E000A4F81C8058461BF0E7FD824658461BF083
:1057F000EAFD064694F840004FF0640900F00F00FF
:105800000C2802D003284CD09AE0A4F81C8056B192
:10581000B4F91E50002718F0CFF900684946407EC1
:10582000C0F1640022E0E08BC5F1640110FB01F1DE
:1058300091FBF9F0E08358461BF086FC054658467C
:105840001BF0C8FD02460C200090B4F91E102B4638
:1058500058460BF059FCE083024600231EE07A19FB
:1058600017B210FB05F292FBF1F215B2002DF6D142
:10587000ADF80070A4F81E806A460021204624F08E
:105880006BFA41F6FF72BDF90030514258460CF0F8
:105890009FFEBDF800100123084402B200214CE035
:1058A0009AE0A4F81E80BAF1000F0AD0B4F91C5097
:1058B000002718F081F900684946407EC0F1640075
:1058C00022E0A08BC5F1640110FB01F191FBF9F01E
:1058D000A08358461BF0B2FC054658461BF00EFD4F
:1058E000034603200090B4F91C102A4658460BF0DA
:1058F0000BFCA083014600231EE07A1917B210FBAF
:1059000005F292FBF1F215B2002DF6D1ADF8007060
:10591000A4F81C8000226946204624F01DFA41F6B6
:10592000FF72BDF90030514258460CF0C9FDBDF878
:1059300000100123084401B2002258461DF096FED3
:10594000A08B002848D1E08B002845D1C6B9584625
:105950001BF040FD054658461BF0F6FB002D06DC0B
:1059600000280DDD002D02DA01232A4604E000287C
:1059700006DA0123404202B2002158461DF076FEAD
:10598000BAF1000F19D158461BF058FC054658468D
:105990001BF0B4FC002D07DC00280EDD002D03DA1F
:1059A00001230022294605E0002806DA012300220F
:1059B000404201B258461DF059FE0A215846019A4C
:1059C00016F06AFC6078800706D414F8400F20F0C7
:1059D0000F00207044F8148CBDE8FC9F7FB50E4684
:1059E000040003D113F076FB04002CD013F0E6FB87
:1059F000002828D094F82800400724D4002506B3B6
:105A0000ADF80050ADF80250204613F07BFB401E6D
:105A1000ADF80400204613F0BBFB401EADF80600B5
:105A20006A46314602A8FFF7A8F900280BD0206883
:105A3000017C890708D5DDE90001C4E90C010120DA
:105A400029E0A4F850517FBD82690AB102A99047AC
:105A500000260AE004EBC601002202A83031FFF75D
:105A6000B4F90028EFD1761CB6B2B4F85001B042B8
:105A7000F0D880B2202804D204EBC00002A9303054
:105A800004E0A4F8505104F13000694611F08EF89A
:105A9000B4F85001401CA4F8500160680028D2D02E
:105AA00021F0EEF87FBD70B5054600F012F804460F
:105AB0000CE02146284600F01EF8064621462846FE
:105AC00000F0A2F8204619F071FD3446002CF0D108
:105AD00070BD002800D04068704700B50346002222
